:100000001BC1000036C1000034C1000032C1000035
:1000100030C100002EC100002CC100002AC1000028
:1000200028C1000026C100000C94471A0C94131B31
:100030000C9453151EC100001CC100001AC1000021
:1000400018C1000016C1000014C1000012C1000058
:1000500010C100000C94CA150CC100000AC10000B8
:1000600008C1000006C1000004C1000002C1000078
:1000700000C10000FEC00000FCC00000FAC000008B
:10008000F8C00000F6C00000F4C00000F2C000009C
:10009000F0C00000EEC00000ECC00000EAC00000AC
:1000A000E8C00000E6C00000E4C000002C00000032
:1000B0000000000000002A2B2800000000000000C3
:1000C00000000000000000000029000000002C1EBD
:1000D0003420212224342627252E362D3738271E7A
:1000E0001F202122232425263333362E37381F04A0
:1000F00005060708090A0B0C0D0E0F101112131438
:1001000015161718191A1B1C1D2F3130232D3504F5
:1001100005060708090A0B0C0D0E0F101112131417
:1001200015161718191A1B1C1D2F3130354C0000DD
:1001300000000000000000000000000000000000BF
:1001400000000000000000000000000000000000AF
:1001500000007E0F00D4FFFFFFC7000000781203ED
:1001600051004D004B006500790062006F0078007F
:10017000000006036400680000000403090409028B
:100180004200020100A0FA0904000001030101007D
:100190000921110100012244000705810308000123
:1001A00009040100020300000009211101000122DD
:1001B0002200070582032000010705030320000138
:1001C00012010002000000086864007001000102D2
:1001D00000010660FF0961A1010962150026FF0008
:1001E0009520750881020963150026FF009520758A
:1001F000089102C005010906A101050719E029E7D8
:100200001500250195087501810295017508810188
:100210000507190029FF150026FF009506750881BE
:10022000000508190129051500250195057501919D
:1002300002950175039101C011241FBECFEFDAE0D2
:10024000DEBFCDBF11E0A0E0B1E0E8E2FBE302C019
:1002500005900D92A631B107D9F721E0A6E1B1E0F2
:1002600001C01D92AC3AB207E1F70E94B60D0C94A2
:100270004C1DC6CE642B682B31F4ECEAF0E02591DE
:100280003491C901089581E090E0089581E00895D6
:1002900081E00895FBCF089581E0089581E00895FD
:1002A000FDCF089508950895FDCF08950895089508
:1002B000A6E0B0E0EEE5F1E00C94C41C49835A835B
:1002C0009E8330911D0189819A81311117C03E8131
:1002D000311589F0211579F06AD4182F682F89819A
:1002E0009A8153D469817A81812F0E94760B269658
:1002F000E3E00C94E01C52D4182FF4CF58D4698159
:100300007A81F3CFFC01262F408151816281738174
:1003100084819581CDCFCF93DF93EC0161E0F2DF53
:10032000BE01B6DF811529F061E0CE01EBDFBE0131
:10033000B1DFDF91CF9108950F931F93CF93DF9398
:10034000EC0160E0DFDF8C01BE01ADDFBE01C80162
:10035000ABDFDF91CF911F910F9108950F931F9302
:10036000CF93DF93EC0161E0CDDF8C01BE0194DF20
:10037000811106C080E0DF91CF911F910F91089508
:10038000BE01C8018DDF8115A9F3BE01C8010E941D
:100390003A13811579F3BE01C8010E947A128115C2
:1003A00049F3BE01C8010E943F10811519F3BE0137
:1003B000C8010E9418108115E9F2BE01C8010E940F
:1003C000BA128115B9F2BE01C8010E94730C8115E1
:1003D00089F2BE01C8010E94850C811559F2BE0147
:1003E000C8010E949F0CC7CF91E001C0990F8A9568
:1003F000EAF7892F29C3CF93C82F81E00C2E01C0C3
:10040000880F0A94EAF7E5D78C2FEEDFCF91089595
:1004100081E0089581E00895FBCF0895CF93C82F20
:10042000C4D28C2FF7DF8C2FF7DF8FEF94E32CE013
:10043000815090402040E1F700C00000CF91089526
:1004400081E0ECDF0C94EE1580E0E8DF0C94FF1502
:100450002DDF0E94311517C018D029DF0C943515F7
:1004600081E008950895CF93DF93C82FF9DFD82F47
:10047000811511F08C2FF6DF8D2FDF91CF9108952C
:100480000895F1CF089580E0FCCF0E944714F9CF82
:10049000CF930E944714C82F809118018C1771F0D8
:1004A000C09318010E94BE156093190170931A0140
:1004B00080931B0190931C018C2FE3DFCF91089553
:1004C000ADE0B0E0E6E6F2E00C94C51C4887598741
:1004D0006A877B878C879D87911192D61F8286E0E1
:1004E000FE0138969E012F5F3F4FD90101900D927A
:1004F0008A95E1F78D8181110CC029813A814B8168
:100500005C816D817E818F81C6D52D96E2E00C9451
:10051000E11CCE010196FFDE8111EFCFF6CFFC0189
:100520002481213019F4808191816DC30895CF9386
:10053000C82F811581F08450813A78F48C2F0E9465
:100540008414811521F08C2F0E94C614C2D68C2FE2
:100550000E94C014BED6CF9108958C2F805E883043
:10056000D0F781E0C1FD84E0C0FD880FC2FD829517
:1005700028D6F0CF811539F0982F9450913A20F475
:100580000E94C614A6C60895982F905E9830D8F79A
:10059000982F81E091FD84E090FD880F92FD829577
:1005A00016D6F0CF1F93CF93DF93182FEB01BFDF49
:1005B000209731F4812FDEDFDF91CF911F910895D5
:1005C0008FE99FE00197F1F700C000002197F0CF7D
:1005D00060E570E0893311F060E070E0E3CF8115F1
:1005E00011F0EFD576C60895811511F0F0D571C6DA
:1005F0000895A0E0B0E0EFEFF2E00C94BF1C6C01B6
:10060000D62FC72FFC011581068102950F70CED51C
:10061000E82E8115E9F0E12E1115D1F08C2F807FA5
:10062000803461F08D2F805E883078F18C2F807E51
:10063000803221F4D23048F1011539F180919801CE
:1006400082FF23C082E061D6B1D591E08927E82EF0
:100650009C2F92959F70983009F4ABC0C0F49230F3
:1006600030F1925F9F70923008F44BC0E11409F4AE
:10067000CBC098D580FDC8C0F60115828DD506D2B5
:10068000C60170D189D50BD2BFC0E12CE1CF993022
:1006900009F4F6C09A5F9F70923040F7D23F09F09C
:1006A000FCC08C2F8F711111F6C0F0D1AAC00C2F95
:1006B0000F70C03110F00295007F111581F0011507
:1006C00049F08D2F805E883010F0D11105C0802F49
:1006D00078D5FFD58D2F33C0802F84D5FACF8D2FBD
:1006E00049DF011509F4C2CF8D2F805E883010F0EC
:1006F000D11103C0802F6BD502C0802F79D5E9D5E9
:10070000B5CF8C2F8F70F82EC07FC03219F0F294C5
:1007100080EFF822D13038F081F1111509F439C099
:100720000115D1F0D7CF8091980182FD11C011152C
:1007300041F0F11419F08F2D44D5CBD580E0F7DED0
:1007400095CF80E017DFF11409F490CF8F2DD3CF30
:10075000111551F0013018F48F2D41DF87CF09F0CA
:1007600085CF8F2D61D582CF011180CF8F2D3CDFBA
:100770008F2D65D58F2D4AD579CF111521F00630F3
:1007800008F074CFE9CF053008F070CF8F2D2CDF43
:100790006DCF0115D9F3D93349F48FEF97EE23E0EC
:1007A000815090402040E1F700C000008D2FE2DE34
:1007B0005DCF8C2F837099F5111123C09D2F9295D9
:1007C00096959770990F990F4D2F4F70092E01C074
:1007D000440F0A94EAF78D2F8071D4FF07C02FE0F1
:1007E00001C0220F9A95EAF7822F8095C695C6958B
:1007F000C370842BC23079F0C33079F0C13049F036
:1008000029D10E9447143DDECDB7DEB7E8E00C9455
:10081000DB1C1CD1F6CF22D1F4CF16D1F2CF1115AB
:1008200031F1C0FFEECF9D2F929596959770990F5D
:10083000990F4D2F4F70092E01C0440F0A94EAF70B
:100840008D2F8071D4FF07C02FE001C0220F9A9531
:10085000EAF7822F8095C695C695C370842BC23067
:1008600059F0C33059F0C13029F031D1CACF8230AC
:1008700040F2D9CF28D1C5CF2ED1C3CFF9D0C1CF27
:10088000CF70111529F08C2F01D18D2FA8DEB9CF93
:100890008D2FAADE8C2F03D1B4CF58F4D03FB1F006
:1008A000D13F79F01115B9F1011591F18D2F3FDE8E
:1008B000A8CFD33FB1F0D43FA9F78091980182FD32
:1008C00018C08C2F8F71111531F3EFCE111539F03F
:1008D000053008F096CF8C2F8F71ECD092CF063078
:1008E000F8CF111521F08C2F8F71C9D08ACFC5D0C8
:1008F00088CF111529F063E08C2F8F71EFD481CF51
:1009000081E003D5023008F47CCF82E0FED479CFB9
:100910008C2F8F71CACE011571F0D93349F48FEF46
:1009200097EE23E0815090402040E1F700C00000A6
:100930008D2F20DE66CF8C2F8F71ADCF0F931F933D
:10094000CF93DF93EC01688179818D8165D18C0132
:10095000C6D079D0B801CE014CDEDF91CF911F9186
:100960000F910895CF93DF93EC018C81811581F075
:10097000CE01F4DC81110FC019D4811549F08D81AD
:10098000811531F08091980182FF02C082E0BDD4D0
:10099000DF91CF910895CE01D1DFCE01CDDCF8CF2C
:1009A0002FD497C40E94CC14FBCF19D4FBCF282F8F
:1009B00092959F70963099F060F4925F9F7092309C
:1009C00030F4203FB1F038F481E0283E38F080E088
:1009D00008959A5FF3CF81E0243FC9F7089591E02D
:1009E000813F09F090E081E0283E08F080E0892B0B
:1009F000089581E00895FC012481211521F0808172
:100A0000918101D1D4CF80E00895A6E0B0E0EBE081
:100A1000F5E00C94C51C2696E2E00C94E11CA7E0DE
:100A2000B0E0E5E1F5E00C94C51C2796E2E00C94FB
:100A3000E11C0895FECF0895FDCF0895FADFFCDF95
:100A40008093220108950895F9CF0895909122018D
:100A5000892BF4CF909122018923F0CF909122012C
:100A60008927ECCFE6CF0895FDCF0895E2CF089512
:100A7000FDDFFADF80932101089580E0F9CF91E056
:100A800001C0990F8A95EAF7892FF2CF21E001C0C2
:100A9000220F8A95EAF780912101822BE9CF21E08C
:100AA00001C0220F8A95EAF7822F8095909121014B
:100AB0008923DECF21E001C0220F8A95EAF78091D9
:100AC00021018227D5CF90912101892BD1CF9091FF
:100AD00021018923CDCF909121018927C9CF089584
:100AE000CF93C1E061FDC4E060FDCC0F62FDC29513
:100AF00093E0769567959A95E1F79B01220F331F56
:100B0000260F371F420F531FFA0140E050E090E0DC
:100B10006191DF019C01042E02C0369527950A944D
:100B2000E2F72695220B26272C2326272E934F5FAC
:100B30005F4F4330510561F7CF910895A82FA770FB
:100B400023E0969587952A95E1F79C01220F331FA4
:100B5000820F931F680F791FFB0140E050E080E097
:100B6000219130E00A2E02C0369527950A94E2F7CB
:100B70002170042E01C0220F0A94EAF7822B4F5FE6
:100B80005F4F4330510561F70895982B31F44EE1E2
:100B900051E0862F60E070E0A3CF0895982B29F4F0
:100BA0006EE171E080E090E0C9CF80E00895CF92DF
:100BB000DF92FF920F931F93CF93DF936C0100910D
:100BC000210180912201082BC3E0D0E010E0C80190
:100BD0000C2E02C0959587950A94E2F780FD0CC013
:100BE0002197A8F7F12C8F2DDF91CF911F910F91B5
:100BF000FF90DF90CF900895FC2EB6018C2F7DD50D
:100C0000019771F3F0CFCF93DF93EC01D0DFBE01FA
:100C100074D5DF91CF9108950F931F93CF938B01DC
:100C200090911D01911531F0CB01EDDFCF911F9116
:100C30000F910895811551F0CB01B9DFC82F682FAE
:100C4000C801A3DFB8018C2F58D5F0CFCB01A6DFA8
:100C5000C82FF8CFE1E0F0E0DF0101C0AA0F6A95EC
:100C6000EAF76A2FDF0101C0AA0F4A95EAF76A2B5B
:100C700001C0EE0F2A95EAF7962F9823961302C02B
:100C80008E2B0895E0958E230895242F462F682FEC
:100C900080912101DFDFECCE0F931F9300912301A0
:100CA00080912401801303C01F910F91089587E064
:100CB000089FF0011124EB5DFE4F208131814281BC
:100CC0005381648175818681AADE0F5F1F4F077093
:100CD000E7CF20915D0130915E0140915F0150911D
:100CE000600160916101709162018091630197CE12
:100CF00080916301803170F480916201811551F01F
:100D0000E09123012091240130915E0140915D0129
:100D10002E1301C00895BF0187E0E89FF001112460
:100D2000DF01AB5DBE4F14968C911497811549F18C
:100D300011968C911197831324C08C91841321C038
:100D400015968C91159781111CC012968D919D91CD
:100D5000A0915F01B09160018A1B9B0B883C9105BB
:100D600080F4809163018F70806180936301E55D01
:100D7000FE4F80818F70806180838DE591E0F2DD90
:100D80008BCF6F5F7F4FFB01E770C2CFE0912301F4
:100D900090912401E91302C080E008959F0157E07B
:100DA000E59FF0011124EB5DFE4F5181561306C003
:100DB0005081581303C05581541305C02F5F3F4F16
:100DC000F901E770E7CF81E008958F929F92AF928B
:100DD000BF92DF92EF92FF920F931F93CF93DF9317
:100DE000CDB7DEB72D970FB6F894DEBF0FBECDBFDF
:100DF0008C0186E0F801DE01189601900D928A952B
:100E0000E1F7F801F58084819DE5892E91E0992E26
:100E100090916101911117C0811509F4EFC0F1148F
:100E200009F42EC1C801E7DD811509F429C187E065
:100E3000F801D40101900D928A95E1F7C4016FDBAE
:100E400057DF47DFDBC0E080A280B380D090620133
:100E500020915F0130916001A501421B530BD11419
:100E600009F4CFC0483C510508F09EC0811509F433
:100E7000C5C090915E01918080916301803108F03E
:100E800065C0991226C090915D019E1122C0F1109B
:100E900057C08F708061809363011BDF8DE591E007
:100EA00061DD80916301F8018683F12C8F2D2D96F1
:100EB0000FB6F894DEBF0FBECDBFDF91CF911F916B
:100EC0000F91FF90EF90DF90BF90AF909F908F9029
:100ED0000895F11035C040E0692D8E2D57DF40E0B8
:100EE000692D8E2D53DFF82E8111DFCF88859985EE
:100EF0008ADE292F22952F70903450F49F70223073
:100F000078F0911591F0F8019681903170F4CECF80
:100F10002A5F2F70223070F0C80124DDFD2CC6CF6F
:100F2000911519F0811509F4C1CF805E883008F45D
:100F3000BDCFF2CF803F08F4B9CF815F8330F7CFC8
:100F400080916301816080936301AFCF991207C0E4
:100F500090915D019E1103C0F11409F473C0C801A2
:100F60004ADD811509F48CC0F11409F489C080911F
:100F70006301803280F020915D0130915E01298310
:100F80003A83AB82BC82909161019D831E828F83E4
:100F9000CE010196E7DC87E0F801ADE5B1E0019014
:100FA0000D928A95E1F74CCF90916301903188F4CE
:100FB000488559856A857B858C859D8526DD8DE5EF
:100FC00091E0D0DCF40187E011928A95E9F781DEA7
:100FD0006CCF811599F020915E0181812813BFCFDC
:100FE00080915D018E11BBCFF110B9CF9683C801FE
:100FF000B9DCF40187E011928A95E9F7FF24F394B4
:1010000055CF483C510508F03EC08115B9F3F114A5
:10101000B9F190915E018181981329C080915D01A1
:101020008E1125C08091630180FD18C08031B0F021
:101030008683807F803F39F08681982F907F905FF4
:101040008F70892B8683C8018DDC87E0F801ADE5C0
:10105000B1E001900D928A95E1F7F3CE87E0F801B7
:10106000ADE5B1E001900D928A95E1F7C7CFC801D7
:10107000C2DC811190CF8091630181608093630114
:10108000C80170DCBBCF488559856A857B858C8516
:101090009D85BBDC97CFAEE0B0E0E1E5F8E00C94D5
:1010A000C41C288739874A875B876C877D878E8732
:1010B000CE0108968ADE6C85811599F0611539F0AC
:1010C000288539854A855B857D858E85A8DC80915C
:1010D00023019091240189133DC02E96E3E00C94E6
:1010E000E01C87E09E01285F3F4FF901275031093E
:1010F000D90101900D928A95E1F7611541F3A09114
:1011000024018A2F90E08395877090E0AC012091B4
:1011100023012417150691F097E09A9FD00111241E
:10112000AB5DBE4F9E012F5F3F4FF90101900D92C5
:101130009A95E1F740932401AFDDC9CF36DC1092D8
:10114000240110922301EDE5F1E087E011928A95E8
:10115000E9F7BDCF17E0189FC00111248B5D9E4FAA
:1011600034DE811509F4B9CFE09123011E9FF0010F
:101170001124EB5DFE4F20813181428153816481D6
:10118000758186814CDC8091230190912401019628
:101190008770809323019BCF80916C018695869503
:1011A0008695089580916C018770089590916C01E7
:1011B000977081E0911101C080E0089580917801DD
:1011C000089590917801982B9093780108958095D7
:1011D000982F809178018923809378010895109247
:1011E0007801089590917701982B90937701089555
:1011F0008095982F809177018923809377010895B6
:101200001092770108950895FECF089590916D0191
:10121000292F282329F08095892380936D01F4CF0D
:1012200008950895FECF089590916E01292F2823E7
:10123000281721F0982B90936E01F4CF0895909188
:101240006E01292F282329F08095892380936E0130
:10125000E9CF089580916E01811521F010926E0101
:1012600080E0E0CF08950F931F93CF93DF93809199
:101270000001909101018C01C0917801809177016A
:10128000C82B80916E01811529F0C82B0E94701423
:101290008111E0DFF801C083C0910001D09101010C
:1012A00048E050E064E671E0CE010E94EC1C892B1E
:1012B00059F088E0FE01A4E6B1E001900D928A9514
:1012C000E1F7CE010E945614DF91CF911F910F914B
:1012D0000895C9CF08950895FECF0895909198017B
:1012E00092FF0EC0982F990F990F990F962B9093FC
:1012F0006C01CCDB80916C01869586958695ECCF50
:10130000C5CB10926C0180E0E7CF90916C01809585
:10131000892380936C01282F277059F4891749F08D
:101320009091980192FF05C0869586958695B7DBCA
:10133000E8CF08959091980192FB222720F9281771
:1013400049F080FB92F99093980187E991E045D0AC
:1013500082E0DBCF089580919801002482FF0394FE
:10136000802DE8CF81E0E6CF80E0E4CF80E090E020
:10137000BC014AC380E090E0BC0140D3F7CFA3E0BA
:10138000B0E0E5ECF9E00C94C51CF3D2FED21B8270
:10139000CE01039611D381E08093220117D31982E5
:1013A00084E18A83CE01019622D30E942613E2DFD4
:1013B0002396E2E00C94E11CE2CF0895ECC208957C
:1013C000D9D281110C94EE120895EBC20895FAC29D
:1013D0000895FCC20895FFC2089509C308951AC371
:1013E0000895A6E0B0E0E7EFF9E00C94C31C0E947A
:1013F000B2158C018091790190917A018017910743
:1014000071F019821A820E94B215BC0149815A8179
:1014100080E090E055D80093790110937A012696E8
:10142000E4E00C94DF1C0E94BE1560938001709371
:101430008101809382019093830160937C0170937A
:101440007D0180937E0190937F0108950895089512
:10145000FDCF08950895FEDFFBCF0895FECF0895D8
:101460000895FEDFFBCF81E79CE092D3F0DFF3CF5E
:1014700081E0089581E00895FBCF089508950895CF
:101480000895FCDFFCDFFCCF9BDF811101C094DFFE
:1014900084E891E09ADF87E991E09DDF98D397DFB8
:1014A000D3DA80912101E0CA0E94A9150E9431136C
:1014B000F7D2EADF0E944002D4CFA6E0B0E0E3E634
:1014C000FAE00C94C31CD6DF811107C08ADF0E94AA
:1014D00048022696E4E00C94DF1CEAD210917B01CE
:1014E00080E0A3D2181791F38091840181FDA3D2EB
:1014F000C3DF082F80E099D2182F80917B01181745
:1015000099F0812780FF0EC0011561F019821A82BF
:101510000E94B215BC0149815A8181E0912F9170DE
:101520000E94600210937B017EDFD1CF0F931F9347
:10153000CF93DF93E4D0EC01D23508F040C0D03532
:1015400008F0B3C0C83ED105F0F4C03ED10560F448
:10155000C53AD10578F4C430D10530F481E0219743
:1015600009F080E0C82FD0E0CE01DF91CF911F912C
:101570000F910895CE018D5C9109D0654397A0F33A
:10158000C0E0D0E0F1CFD03490F4D03208F0A0C069
:10159000CE0191509F31A0F78D2F54D1082F8C2F61
:1015A00090E0ADD0D02FDF71C82FD92BDDCF8C2F9D
:1015B00090E0A5D0DF70C82FD92BD06AD5CFC03826
:1015C00082E5D807B8F5C03682E5D80708F051C0E3
:1015D000C03482E5D807C8F4C03282E5D80708F0E5
:1015E00042C08C2F8695869520E2829FC0011124EF
:1015F000C37021E030E002C0220F331FCA95E2F72A
:10160000E901C82BD92BDD68AFCF8C2F8695869545
:10161000877020E2829FC0011124C37021E030E076
:1016200002C0220F331FCA95E2F7E901C82BD92B5C
:10163000DC689ACFC03C82E5D80750F48C2F8F71BC
:10164000C03AD24558F5982F84EF906AEC018CCFC0
:10165000CE01805C9245809708F092CFDC2FDF713D
:10166000C0EFD06A81CF8C2F8F71D82FC1EFD06A95
:101670007BCF8C2F86958695877020E2829FC00154
:101680001124C37021E030E002C0220F331FCA953D
:10169000E2F7E901C82BD92BDA6866CFD3D0982FAF
:1016A00080E09F71EC01D0625FCF8C2F8F71CAD028
:1016B00053E0CC0FDD1F5A95E1F7DF70282F84FF30
:1016C00004C090E1899F90011124C22FD0694CCFB2
:1016D0008D2F8F71B7D0082F8C2F90E010D0302F26
:1016E0003F71282F392B3062E9013ECF672B11F46F
:1016F00040E0C4C280E090E00895F8DF17CF803E5C
:101700009105D1F1C8F48133910509F481C048F401
:101710008932910509F471C08A32910509F47FC0BC
:10172000089589339105E1F082389105C9F0853338
:10173000910509F45DC00895843E9105D1F148F406
:10174000823E910531F1833E910541F181EE90E0B9
:101750000895863E9105C1F1873E9105F1F1089506
:1017600020919701237009F064C02091980123FF14
:1017700014C089E290E008952091970120FD45C0B2
:101780003091980130FF09C024FD24C083EE90E021
:1017900008952091970122FDF7CF08952091970198
:1017A00022FD44C03091980130FD43C024FFF5CFA5
:1017B00011C02091980121FFF0CF8091970184FD05
:1017C00009C087EE90E008952091970123FFE5CFAF
:1017D00024FFF7CF80E090E008952091970123FD4A
:1017E0002BC03091980131FFE1CF84EE90E0089555
:1017F0002091970125FFD1CFBCCF2091970125FDE6
:101800001EC02091980123FFC8CF89E390E008957E
:101810002091970126FFC1CF8AE290E008952091A0
:10182000970126FFBACF81E390E0089582EE90E021
:10183000089580EE90E0089586EE90E0089585E3A7
:1018400090E008959091970192FF10C041E0282FF9
:101850002471243009F040E031E0282F287128302D
:1018600009F030E0431711F02CE0822793FF10C0FD
:1018700041E0282F2471243109F040E031E0282F85
:101880002871283109F030E0431711F02CE082274D
:101890003091980130FF10C051E0282F2171213084
:1018A00009F050E041E0282F2871283009F040E08D
:1018B000541711F029E0822731FF10C041E0282F92
:1018C0002171213109F040E031E0282F28712831C1
:1018D00009F030E0431711F029E0822794FD877E5C
:1018E000089580E00895CF939C01205E3245C1E0C9
:1018F0002032310538F4FB01C581C11103C08F715D
:101900000E94FB018C2FCF9108959C01FB018581E2
:10191000811599F02B359CE7390769F02C359CE748
:10192000390721F02A353C4721F0089514DD80E085
:10193000089518DDFCCF18DDFACF81E008959C01F1
:10194000FB018581811599F021309CE7390761F011
:1019500023309CE7390739F021153C4749F40E94B0
:10196000200280E008952ADD0E942402FACF81E05F
:101970000895089580E090E00E940A1D9C0181E096
:10198000233E3E4F09F080E0089563EE7EEF80E055
:1019900090E00C94381D6FEF7FEF80E090E00C94A6
:1019A000381DCF93DF93EC0182E090E00E94021D8E
:1019B0008883DF91CF910895FC01608182E090E0FF
:1019C0000C941E1D83E090E00C94021D682F83E0B0
:1019D00090E00C941E1DCF93DF93EC0184E090E027
:1019E0000E940A1D88839983DF91CF910895FC019D
:1019F0006081718184E090E00C94381DAB01BC01E2
:101A00008FE090E00C94301DAB01BC0183E190E0CD
:101A10000C94301D682F8EE090E00C941E1D0895EC
:101A2000FECF08950895FECF0895E82FF0E0E65622
:101A3000FE4F80810895089580EA8A95F1F7089510
:101A400000C00895F9CF0895F89484988C9A7894FA
:101A50000895FADFF89485988D9A789408950F93F5
:101A60001F93CF93DF938C01D62FC42FF894849AC1
:101A70008C987894E5DFF80140817D9B0EC0C0957D
:101A80004C23C0E0F8014083DFDF6C2F8D2FDADFBD
:101A9000DF91CF911F910F9108954C2BC1E0F2CFB0
:101AA000D8DF10929A011092990181E024D0B8CF2A
:101AB000A1E0B0E0EEE5FDE00C94C41C198241E029
:101AC00060E0CE010196CBDF90919901898121E000
:101AD00098130EC020E041E06AE971E089E991E0E5
:101AE0000BD0182FA0DF812F2196E3E00C94E01C8F
:101AF00080939901F0CF0895A0E0B0E0E2E8FDE026
:101B00000C94BF1C7C016B01042FC22F211579F0AE
:101B100081E0809387010E94B215809385019093A4
:101B2000860180E0CDB7DEB7E8E00C94DB1CD091F5
:101B30008701D115B1F38091850190918601A3D7DA
:101B4000059778F310E0A801B701C6010E94EC1CCC
:101B5000892B31F0A801B701C6010E94F91CCD2FD5
:101B6000109287018C2FDECFA8CC089595D70E94C4
:101B70005A1779DC0E94721797DC0E947B170E942B
:101B80007E17F2DF0E9494170E944B167ADCF7CF83
:101B90008093160190931701089595C608950ECC71
:101BA000089580E042DF8170089582DF8FEF96E72D
:101BB00021E0815090402040E1F700C0000078DF34
:101BC000F0DF811519F0EBDF0C94EE150895EDCFE1
:101BD0000895A1E0B0E0EFEEFDE00C94C11C7C01A3
:101BE000FC0160817181828193819E012F5F3F4F53
:101BF000890140E050E09D016BD1F7018081918126
:101C0000A281B3810196A11DB11D80839183A2831E
:101C1000B38389812196E6E00C94DD1C84E008956D
:101C2000B8C00895D4C00895CF93B1D0C0E040E0CB
:101C300060E08C2F0E943A019C0140E060E08C2F14
:101C4000C6D0CF5FC43099F7CF9108950F931F93FB
:101C50008A019B0140E050E0BC01CA01D2D01F9133
:101C60000F9108950F931F938A019B0140E050E06C
:101C7000BC01CA01F2D01F910F910895843020F465
:101C8000642B11F440E085C080E090E0089580E18D
:101C9000089519D1CB0108950F931F938A019B01D9
:101CA00040E050E0BC01CA0113D11F910F9108958B
:101CB0000F931F938A019B0140E050E0BC01CA01D1
:101CC0004CD11F910F91089563D078C16F927F928C
:101CD0008F929F92BF92CF92DF92EF92FF920F93DB
:101CE0001F93CF93DF9300D000D0CDB7DEB7B82ECF
:101CF000803118F5E8D061507109810991097E01A0
:101D00002FEFE21AF20A870121E030E040E050E0D4
:101D1000DFD08981811111C0D6D03B014C01E12C6B
:101D2000F12C6701B1101BC0C982DA82EB82FC8200
:101D300040E0B80189EE9DE00BD30F900F900F901B
:101D40000F90DF91CF911F910F91FF90EF90DF9057
:101D5000CF90BF909F908F907F906F900895C30118
:101D6000D401C816D906EA06FB0639F321E030E0B3
:101D700040E050E0B601C701ABD089819FEFC91A9E
:101D8000D90AE90AF90A8111EACFBA94CBCF0895AA
:101D900008950F931F93CF93DF938430A8F4642B9F
:101DA00099F4C82FD0E0CC0FDD1FCE0189960E9498
:101DB000021D082FCE018A960E94021D902FDF91EE
:101DC000CF911F910F91089580E090E0F8CF1F937D
:101DD000CF93DF93122F843080F4462B71F4C82FF9
:101DE000D0E0CC0FDD1F632FCE0189960E941E1D0F
:101DF000612FCE018A960E941E1DDF91CF911F9107
:101E00000895A0E0B0E0E7E0FFE00C94BB1C6B019C
:101E10007C01E8012C0D3D1D4E1D5F1D49015A013D
:101E2000C814D904EA04FB0429F4CDB7DEB7ECE00A
:101E30000C94D71C88E0C816D104E104F10458F4CE
:101E4000C60189960E94021D89938FEFC81AD80A8D
:101E5000E80AF80AE5CF80E0F7CF8F929F92AF9221
:101E6000BF92CF92DF92EF92FF920F931F936B017D
:101E70007C012C0D3D1D4E1D5F1D49015A01C814EA
:101E8000D904EA04FB0459F41F910F91FF90EF90DD
:101E9000DF90CF90BF90AF909F908F90089588E093
:101EA000C816D104E104F10430F4F8016081C601E0
:101EB00089960E941E1D0F5F1F4F8FEFC81AD80A08
:101EC000E80AF80ADCCF6FEC73E080E090E0089558
:101ED0004F925F926F927F928F929F92AF92BF923A
:101EE000EF92FF920F931F93CF93DF934B015C010F
:101EF00029013A01E8017B0181E3E80EF11C00E0D1
:101F000010E0C201D301081719071A061B0678F062
:101F1000DF91CF911F910F91FF90EF90BF90AF9005
:101F20009F908F907F906F905F904F900895C40125
:101F3000D501800F911FA11DB11D8F3C9340A105BC
:101F4000B10548F4C701800F911F0E94021D8993BB
:101F50000F5F1F4FD6CF80E0FACFA0E0B0E0E3EBF9
:101F6000FFE00C94B91C6B017C0149015A01380156
:101F7000EB01E1968D01C401D501081719071A0676
:101F80001B0628F0CDB7DEB7EEE00C94D51CC601D9
:101F9000D701800F911FA11DB11D8F3C9340A1055A
:101FA000B10548F4F301E00FF11F6081CE01800F0D
:101FB000911F0E941E1D0F5F1F4FDDCFA0E1B0E0FB
:101FC000E4EEFFE00C94B71CFE013196DF0180E1E6
:101FD0001D928A95E9F70DE310E09FEC492E93E0FE
:101FE000592E612C712C5301A4189E2E8F2E620144
:101FF000730181E148165104610471041CF080E111
:10200000C82ED12CA601B501892D982D0E940F1D37
:10201000AC0CBD1C0D2C000C00084C185D086008B1
:1020200070080150104019F76096E0E10C94D31C41
:10203000CF93DF93EB0186319C47F9F4BFD89D81A4
:10204000911591F08A7A91E0811101C090E090930E
:102050008801811539F085E393D43BD980E0DF9185
:10206000CF91089589E2F8CF80918801811519F008
:1020700085E38CD4F2CF89E2FCCF81E0F0CFCF931F
:10208000DF93EC01FB018581811509F4C8C09E0135
:1020900030572332310508F0A8C087E991E09BD979
:1020A000FE01E150F047E232F10520F4E25BF24E2E
:1020B0000C94A81C809197018160809397018FC038
:1020C0008091980188608093980189C080919701E0
:1020D0008260F3CF809197018460EFCF8091970168
:1020E0008860EBCF809198018160EDCF809198015D
:1020F0008260E9CF809197018061DFCF8091970165
:102100008062DBCF809197018064D7CF0E94D50495
:10211000809197018068D1CF809197018C60CDCF5D
:10212000809198018360CFCF809197018E7FC5CF3A
:1021300080919801877FC7CF809197018D7FBDCF18
:10214000809197018B7FB9CF80919701877FB5CF21
:10215000809198018E7FB7CF809198018D7FB3CF0A
:10216000809197018F7EA9CF809197018F7DA5CF18
:10217000809197018F7BA1CF0E94D5048091970118
:102180008F779BCF80919701837F97CF8091980124
:102190008C7F99CF90919701892F8B7F92FF8460DC
:1021A000877F92FF886089CF80919801982F9095C2
:1021B00090FB80F990FB81F986CF90919701892F50
:1021C0008F7B96FF806479CF0E94D5049091970110
:1021D000892F97FB87F9805870CF81E000D987E974
:1021E00091E0FBD80E94D50480E0DF91CF91089563
:1021F00080E0F4CF90919701892F8F7E94FF8061CA
:102200005CCF90919701892F8E7F90FF816055CF91
:1022100090919801892F877F93FF886054CF81E048
:10222000E4CFA0E0B0E0E7E1F1E10C94BE1CE82FC0
:10223000F0E0E255FF4F9491B92E282F2695269570
:10224000269530E0F901E25BFE4FE4908770F12CB7
:10225000082E02C0F594E7940A94E2F7F901E25CD3
:10226000FE4FC490D12C082E02C0D594C7940A9476
:10227000E2F7225D3E4FF901049110E002C015958E
:1022800007958A95E2F7C62FD0E0E0FC25C0C0FE96
:1022900006C086EE0E949702CE01009759F5BE0156
:1022A0008B2D0E94D202CE01009761F5C0FC32C096
:1022B000E0FE06C081EE0E94BA02CE010097C1F591
:1022C00000FF05C08CE20E94E8022097C9F5CDB757
:1022D000DEB7E9E00C94DA1C81EE0E949702CE0191
:1022E0000097A9F2EFE9FFE03197F1F700C0000095
:1022F0000197F6CFEFE9FFE03197F1F700C000005A
:102300000197CBCFEFE9FFE03197F1F700C0000074
:102310000197CACF86EE0E94BA02CE01009741F221
:10232000EFE9FFE03197F1F700C000000197F6CF29
:10233000EFE9FFE03197F1F700C000000197BECF51
:102340008FE99FE00197F1F700C000002197BDCF12
:10235000A0E0B0E0EEEAF1E10C94BE1C8C017B0140
:10236000B42EC701F80109958130A0F009F058C0DA
:10237000C701F8010995C82F813089F4C701F80118
:1023800009950E94E8028B2D90E0009709F040C06B
:10239000C111E7CFCDB7DEB7E9E00C94DA1C82308B
:1023A00031F4C701F80109950E949702ECCF833000
:1023B00031F4C701F80109950E94BA02E4CF8430D4
:1023C00011F7C701F8010995C82FC12CD12CDAE00B
:1023D0008C2F8053990B8A30910568F0C114D10479
:1023E00091F2EFE9FFE03197F1F700C0000081E0E2
:1023F000C81AD108F3CFDC9D9001DD9D300D11246A
:10240000820F931F6C01C701F8010995C82FE0CF17
:10241000EFE9FFE03197F1F700C000000197B5CF79
:102420006B2DFFDE9ECF0F931F93CF93DF93C42FAF
:10243000D22FFC0185818115C9F040938B0192D385
:102440008093890190938A018C2F805E883048F4B4
:1024500081E0C1FD84E0C0FD880FC2FD82950E942D
:10246000EF02DF91CF911F910F91089510918B0191
:10247000141333C08091890190918A0104D3883C60
:10248000910558F5CD2FC05E1D17C1F0812F805EDC
:10249000883048F481E011FD84E010FD880F12FDC2
:1024A00082950E94F402C83048F481E0D1FD84E0B6
:1024B000D0FD880FD2FD82950E94EF02802F0E94EE
:1024C000E80281E0D1FD84E0D0FD880FD2FD829545
:1024D000C83038F60E94F402C4CF8C2F805E88305A
:1024E00008F0BFCF81E0C1FD84E0C0FD880FC2FDD0
:1024F0008295F0CF0F93FC01CB01E851FC47E73008
:10250000F10588F5E059F24E0C94A81C06E221EE84
:1025100041EE6AE17CE787DF80E00F91089507E2F2
:1025200025EE45EE6BE17CE7F6CF06E221EE40EECC
:1025300068E17CE7F0CF07E225EE44EE69E17CE755
:10254000EACF06E221EE42EE6CE17CE7E4CF07E25F
:1025500025EE46EE6DE17CE7DECF08E221E045EEB8
:102560006EE17CE7D8CFFB018581811110928B0150
:1025700081E0D3CFCF93DF9387372CE7920739F0F1
:1025800088379C47D1F081E0DF91CF910895FB011E
:102590008581811571F019D00E9446051CD0C82F85
:1025A00017D0D82F12D04C2F6D2F0E94450680E0F7
:1025B000EBCF0BD00E944F05F1CFFB018581811538
:1025C00011F006D0E9CF04D0F5CF80910401089531
:1025D000809103010895809102010895A3E0B0E085
:1025E000E4EFF2E10C94C51CCE010196AC0101961A
:1025F000BC010196FED08B81853239F48A8181310C
:1026000021F481E09981933109F080E08170239673
:10261000E2E00C94E11C811521F043E161E185E2E7
:102620000EC14FEF6FEF8FEFFBCF08950895CF925C
:10263000DF92EF92FF926B017C01F8DFB601C701D8
:102640001DD1FF90EF90DF90CF900895D1D080E022
:10265000E2DF80E090E0BC01EADFE6DA35DB81E032
:10266000DACFE3DF02D1E2DFB9DF811101C0EECFC3
:10267000089508959C01FB018581811549F0A90108
:1026800057574038510528F4822F20DB80E0089509
:1026900081E008952FEFFC0120830895FBCF08957A
:1026A00080E008951F93CF93DF93EC01162FF8DF9E
:1026B00081110FC0E881E150E331B8F4F0E0E9584E
:1026C000F24E0C94A81C19828CE08A83612FCE01F3
:1026D00064DADF91CF911F91089589818330C9F029
:1026E00038F4813061F0823091F08FEF8883EECF43
:1026F0008430D9F71A821B821C821D82E7CF3ED21A
:102700000E94AE1C6A837B838C839D83DFCFADD018
:10271000F7CF8A818111DACF1B82D8CF89818230AD
:1027200029F0853011F78A81A4DFD0CF6A817B81BF
:102730008C819D810E94AE1C7ADFC8CF4B816A815B
:1027400089816EDA9C013827232732272C833D8329
:10275000BDCF2C813D813227232732274B816A81CF
:10276000898160DAB3CF60DAB1CF612FCE0196DF15
:10277000ADCF8DDA8983AACF8CDA9C013827232745
:10278000322729833A83A2CF6B8170E089819A81B5
:10279000982789279827AE014C5F5F4F7DDA96CF47
:1027A0006B8170E089819A81982789279827AE01EB
:1027B0004C5F5F4F7DDA8ACF87DA88CF2FDADACFA6
:1027C0006B8170E089819A81982789279827AE01CB
:1027D0004C5F5F4F3BDA7ACF6B8170E089819A81E1
:1027E000982789279827AE014C5F5F4F3BDA6ECF61
:1027F0000895EF92FF920F931F93CF93DF937C0185
:102800008B01EA01892B31F085E290E00E94021DE4
:10281000F70180830115110531F086E290E00E94F6
:10282000021DF8018083209729F087E290E00E9442
:10283000021D8883CDB7DEB7E6E00C94DD1CCF9394
:10284000DF93C62FD42F682F85E290E00E941E1DD3
:102850006C2F86E290E00E941E1D6D2F87E290E0B3
:102860000E941E1DDF91CF91089588E290E00E94A2
:10287000021D682F70E080E090E0089588E290E00B
:102880000C941E1D80938C0190938D010895E0910E
:102890008C01F0918D01309739F00190F081E02D9D
:1028A000309711F00995089580E00895E0918C012A
:1028B000F0918D01309731F00280F381E02D309757
:1028C00009F009950895E0918C01F0918D01309700
:1028D00031F00284F385E02D309709F009950895D1
:1028E00040910001509101019A012E5F3F4F485FD6
:1028F0005F4F80E0F90190812F5F3F4F91118F5F13
:1029000042175307B9F70895811591F020910001FE
:1029100030910101F9013296285F3F4F908198175D
:1029200031F03196E217F307C9F780E0089581E0AE
:1029300008959C01FC01329680E09FEF408146178C
:1029400059F031969F3F19F4411101C0982F8F5FC4
:102950008630A1F79F3F09F40895290F311D97FD97
:102960003A95F90162830895FC0132960896219107
:10297000261302C0DF011E92E817F907C1F7089578
:10298000682F8091000190910101D3CF682F809131
:10299000000190910101E8CFE0910001F091010167
:1029A000329686E011928A95E9F708950895FECF50
:1029B00008958F5F80930801609105017091060171
:1029C0008091070190910801F2CF83E08093080184
:1029D00060910501709106018091070190910801B5
:1029E000E6CFE7CF089581E080930801609105016B
:1029F000709106018091070190910801D8CFF3CF23
:102A0000089591E0811101C090E0909307016091D9
:102A10000501709106018091070190910801C7CFCF
:102A200080910701089580930601609105017091DE
:102A300006018091070190910801B9CF80910601AC
:102A400008958093050160910501709106018091C0
:102A5000070190910801ABCF809105010895089579
:102A60000895FECF089508950895F9CF0895FBDFE6
:102A70001FD8FADF80E00E94150D982F81E0911198
:102A800001C080E00895CF93DF93EC016BD08C1BE5
:102A90009D0BDF91CF91089585B7806885BF85B77D
:102AA000806885BF08951F921FB61F9211248F93CF
:102AB0009F93AF93BF9380918E01811113C080913A
:102AC0009B0190919C01A0919D01B0919E01419626
:102AD000A11DB11D80939B0190939C01A0939D012A
:102AE000B0939E01BF91AF919F918F911F901FBE98
:102AF0001F9018958091A301843031F10E94280223
:102B000010928E0188E190E020E40FB6F894A89529
:102B1000809360000FBE2093600083B7817F846044
:102B200083BF83B7816083BF7894889583B78E7F96
:102B300083BF0FB6F894A895809160008861809358
:102B40006000109260000FBE08950E94D5040C949E
:102B50002C0282E084BD93E095BD9AEF97BD8093EF
:102B60006E0008952FB7F89480919B0190919C017D
:102B7000A0919D01B0919E012FBF08952FB7F894A9
:102B800060919B0170919C0180919D0190919E01AB
:102B90002FBF089578941F921FB61F9211248F9310
:102BA0009F93AF93BF9380919B0190919C01A091C3
:102BB0009D01B0919E010196A11DB11D80939B01C5
:102BC00090939C01A0939D01B0939E01BF91AF9102
:102BD0009F918F911F901FBE1F90189587E797E7D1
:102BE000809300089093010888E19AE00FB6F8946A
:102BF000A895809360000FBE90936000FFCF88E19E
:102C00009AE00FB6F894A895809360000FBE909359
:102C10006000FFCF0895089508959B01BA01909137
:102C2000A3019430D9F48F708093E9009FEF8091D5
:102C3000E80085FD06C085ED8A95F1F7000091500A
:102C4000B1F78091E80085FF09C040E050E0C9017C
:102C5000DED18091E8008E778093E800089560329D
:102C600029F440E250E0BC0182E0D7CF0895CF9331
:102C7000DF93EC01D5DE48E050E0BE0181E0CDDF1E
:102C800088E0FE01AFE8B1E001900D928A95E1F78E
:102C9000DF91CF910895A0E2B0E0E0E5F6E175C6DE
:102CA0008091A3018430F1F483E08093E900809166
:102CB000E80082FF17C08091E80090E085FF07C020
:102CC00040E050E0BD01CE010196EDD191E0809150
:102CD000E8008B778093E800911521F060E2CE0147
:102CE0000196E0DCA096E2E06CC68091A201811121
:102CF00007C060D3B0D38091E20084608093E2008B
:102D000008951092A20108956EDE81E07ACE60915E
:102D10009F0181E0611101C080E057CE9091A30135
:102D200081E0943009F080E060919F015ACE42E04A
:102D300061EC81E0BBD242E261EC82E0B7D242E2D8
:102D400060EC83E0B3D29091A30181E0943009F06C
:102D500080E060919F012DCE8091A501893081F1A5
:102D600048F4823009F496C0833009F457C08130AA
:102D700041F008958A3009F480C08B3009F468C0AE
:102D800008958091A401813A09F047C08091E8003C
:102D9000877F8093E8008091A8019091A901892BF9
:102DA00059F060E080E090E070E0C9D18091E800E7
:102DB0008B778093E800089568E08FE891E0F4CF86
:102DC0008091A401813249F58091A8019091A901D7
:102DD000892B19F58091E800877F8093E800809126
:102DE000E80082FF16C02091F3008091F200922F3C
:102DF000029731F48091F100813011F0863019F49E
:102E00008091F10010DE8091E8008B778093E800DC
:102E100081C28091A3018111E2CF08958091A40124
:102E2000813AD9F78091A8019091A901892BA9F73E
:102E30008091E800877F8093E8008091E80080FF20
:102E4000FCCFEEDD8093F1008091E8008E77DECF3D
:102E50008091A401813209F78091A8019091A90184
:102E6000892BD9F68091E800877F8093E80052D2C1
:102E70008091A601C6DD0C94D5048091A401813215
:102E800061F68091E800877F8093E80043D28091CB
:102E9000A701D7CD8091A401813A09F0BECF8091DE
:102EA000E800877F8093E8008091E80080FFFCCFF6
:102EB000D3DDC8CF84B7877F84BF0FB6F894A895B9
:102EC00080916000886180936000109260000FBE66
:102ED00080E890E00FB6F8948093610090936100D1
:102EE0000FBE8DCD67D2B7D2E2EEF0E08081846074
:102EF0008083789414C589E091E0C4CC8091A301CB
:102F0000853029F48091A301853011F01ECE0895FB
:102F1000F1DDADDD8115B1F38091A101811591F352
:102F200060D00E94D504EECF08959A014091AA0185
:102F30005091AB0100C0E92FF0E0E330F105C9F09A
:102F400078F4E130F10509F444C0E230F10571F4A0
:102F5000E2E48EE791E0D9018D939D93CF0108952E
:102F6000E132F10521F1E232F10561F1E0E0CF015A
:102F7000F2CF482F50E0813061F04230510581F0AE
:102F8000452BA1F7EAE7F1E0E491F0E08AE791E070
:102F9000E2CFE2E7F1E0E491F0E082E791E0DBCF1D
:102FA000EEE5F1E0E491F0E08EE591E0D4CFE9E0E8
:102FB00080E991E06130710570F2C1F6E9E089EADB
:102FC00091E0C9CF6130710540F081F682ED91E06A
:102FD000C2CFE2E180EC91E0BECFE4E484EF91E087
:102FE000BACF80E189BD82E189BD09B400FEFDCF81
:102FF0008091D8008F7D8093D8008091E00082601E
:103000008093E0008091E00081FDFCCF0895AF92B5
:10301000BF92CF92DF92EF92FF921F93CF93DF93F5
:103020007C01EB016A0195D1182F811122C0C114D6
:10303000D10439F0F60180819181C81BD90BE80ECB
:10304000F91EA12CB12C2097A1F08091E80085FDFC
:1030500020C08091E8008E778093E800C114D104ED
:1030600099F0F601808191818A0D9B1D8083918367
:1030700015E0812FDF91CF911F91FF90EF90DF90AE
:10308000CF90BF90AF90089564D18115F1F2182FC1
:10309000F0CFF70181917F018093F10021978FEFAD
:1030A000A81AB80AD0CFAF92BF92CF92DF92EF9218
:1030B000FF921F93CF93DF937C01EB016A0149D10B
:1030C000182F811122C0C114D10439F0F60180817A
:1030D0009181C81BD90BE80EF91EA12CB12C2097A9
:1030E000A1F08091E80085FD20C08091E8008B77F9
:1030F0008093E800C114D10499F0F6018081918198
:103100008A0D9B1D8083918315E0812FDF91CF91E4
:103110001F91FF90EF90DF90CF90BF90AF900895F8
:1031200018D18115F1F2182FF0CF8091F100F7013D
:1031300081937F0121978FEFA81AB80AD0CFFC01A5
:103140008091AA019091AB018617970720F0611535
:10315000710561F0CB0140E0009771F441110CC0A2
:103160008091E80082FF36C080E008958091E800F9
:103170008E778093E800EECF2091A3012115B1F165
:103180002530B1F12091E80023FD2EC02091E80008
:1031900022FDE6CF2091E80020FFDECF4091F30032
:1031A0002091F200342F009719F02830310558F0A3
:1031B00041E02830310509F040E02091E8002E7709
:1031C0002093E800C9CF41914093F10001972F5F10
:1031D0003F4FE9CF8091A301811541F0853041F047
:1031E0008091E80083FFBCCF81E0089582E00895DC
:1031F00083E00895FC018091AA019091AB018617AC
:10320000970720F06115710561F0CB0140E0009750
:1032100071F441110CC08091E80082FF37C080E05A
:1032200008958091E8008E778093E800EECF20919A
:10323000A3012115B9F12530B9F12091E80023FD52
:103240002FC02091E80022FDE6CF2091E80020FF6A
:10325000DECF4091F3002091F200342F009719F057
:103260002830310558F041E02830310509F040E0C0
:103270002091E8002E772093E800C9CF4491409335
:10328000F100319601972F5F3F4FE8CF8091A30166
:10329000811541F0853041F08091E80083FFBBCF7C
:1032A00081E0089582E0089583E00895982F973093
:1032B00028F08F708093E90081E008959093E900F1
:1032C000242F762F50E0981731F07091EC00209168
:1032D000ED005091F00021FD02C09F5FE8CF3091DA
:1032E000EB003E7F3093EB003091ED003D7F30935B
:1032F000ED003091EB0031603093EB007093EC0007
:103300002093ED005093F0002091EE0027FDE5CFD3
:1033100080E008958091A40187FF13C08091E800A8
:1033200082FF06C08091E8008B778093E8000895C3
:103330008091A3018111F2CF08958091A30181159D
:10334000D9F38091E80080FFF8CF8091E8008E7774
:10335000ECCF2091E4003091E50095E6A9012091A1
:10336000EC00822F817020FF06C08091E80080FF72
:1033700006C080E008952091E80022FD1AC08091E7
:10338000A301811589F0853089F08091EB0085FDDE
:103390000FC02091E4003091E50042175307F9F285
:1033A0009150E1F684E0089582E0089583E0089565
:1033B00081E008955FD066D0E0EEF0E0808181602A
:1033C0008083E8ED80818F77808319BCA7EDB0E022
:1033D0008C918E7F8C9380818F7E80831092A2014E
:1033E0000895CF93DF9346D04DD0C8EDD0E08881CB
:1033F0008F77888388818068888388818F7D8883A0
:1034000019BC1092A30110929F011092A101109279
:10341000A001E0EEF0E080818B7F80838881816075
:10342000888342E060E080E041DFE1EEF0E080810F
:103430008E7F8083E2EE80818160808380818860DE
:103440008083E0EE80818E7F8083888180618883A5
:10345000DF91CF910895E8EDF0E080818F7E808349
:10346000E7ED80818160808384E082BF81E080938A
:10347000A201B7CFE8EDF0E080818E7F80831092CB
:10348000E20008951092DA001092E10008951F9270
:103490000F920FB60F9211242F933F934F935F9388
:1034A0006F937F938F939F93AF93BF93EF93FF930C
:1034B0008091E10082FF0AC08091E20082FF06C095
:1034C0008091E1008B7F8093E10028D28091DA0027
:1034D00080FF18C08091D80080FF14C08091DA006E
:1034E0008E7F8093DA008091D90080FF8FC080E1C9
:1034F00089BD82E189BD09B400FEFDCF81E08093E2
:10350000A301F3DB8091E10080FF18C08091E2000D
:1035100080FF14C08091E2008E7F8093E200809152
:10352000E20080618093E2008091D8008062809305
:10353000D80019BC85E08093A301E9DB8091E1000C
:1035400084FF28C08091E20084FF24C080E189BD0F
:1035500082E189BD09B400FEFDCF8091D8008F7D46
:103560008093D8008091E1008F7E8093E10080916C
:10357000E2008F7E8093E2008091E2008160809380
:10358000E20080919F01811509F445C084E0809399
:10359000A301C4DB8091E10083FF27C08091E2009A
:1035A00083FF23C08091E100877F8093E10082E068
:1035B0008093A30110929F018091E1008E7F809300
:1035C000E1008091E2008E7F8093E2008091E20032
:1035D00080618093E20042E060E080E067DE8091FD
:1035E000F00088608093F0008FDBFF91EF91BF9136
:1035F000AF919F918F917F916F915F914F913F918B
:103600002F910F900FBE0F901F90189519BC10921C
:10361000A30177DB77CF8091E30087FF02C083E0CF
:10362000B6CF81E0B4CF1F920F920FB60F92112444
:103630001F932F933F934F935F936F937F938F933A
:103640009F93AF93BF93CF93DF93EF93FF93E9EEF5
:10365000F0E080811091EC008F7010FB112717F9BA
:10366000182B1082C0EFD0E08881877F8883789400
:103670001CD0E9EEF0E010828881886088831F709A
:103680001083FF91EF91DF91CF91BF91AF919F9107
:103690008F917F916F915F914F913F912F911F91EA
:1036A0000F900FBE0F901F901895AAE2B0E0EAE5C8
:1036B000FBE16AC184EA91E0FC0101962091F100EE
:1036C000208321E08C3A9207B9F746DB8091E8002D
:1036D00083FF37C08091A4019091A5019A3088F5AD
:1036E000E92FF0E0E657F24E33C1803889F0823896
:1036F00041F58091A8018F70873018F58093E9001B
:103700008091EB0085FB882780F91092E90006C0C4
:103710008091A101880F9091A001892B9091E800E0
:10372000977F9093E8008093F1001092F1008091D0
:10373000E8008E7722C0811115C08091A6018130EA
:1037400001F18091E80083FF0AC08091E800877F43
:103750008093E8008091EB0080628093EB00AA9652
:10376000E3E02EC1823069F78091A601811579F0DE
:103770001092E9008091E800877F8093E800CADD1D
:10378000E0CF933009F080E08093A101F1CF8091E8
:10379000A8018F70282F2150263098F68093E900D9
:1037A0002091EB0020FFE4CF933031F48091EB00C7
:1037B00080628093EB00DCCF9091EB00906190935E
:1037C000EB0021E001C0220F8A95EAF72093EA007E
:1037D0001092EA008091EB008860EBCF8111B1CFAD
:1037E0008091A6018F77182F8091E3008078812B3C
:1037F0008093E3008091E800877F8093E8008ADD72
:103800008091E80080FFFCCF8091E3008068809386
:10381000E30083E0111101C082E08093A30191CF06
:103820008058823008F08DCF8091A6019091A70139
:103830008C3D23E0920789F583E08A838AE28983BD
:103840004FB7F894DE01139620E03EE051E2E32FFB
:10385000F0E050935700849120FF03C082958F7051
:103860003F5F8F708A30B8F0895C8D931D922F5F17
:10387000243169F74FBF8091E800877F8093E8008B
:103880006AE270E0CE0101965ADC8091E8008B7705
:103890008093E80056CF805DE8CF6091A8017091D9
:1038A000A9019E012F5F3F4FA9013FDBBC01892B7E
:1038B00009F447CF9091E800977F9093E8008981C1
:1038C0009A8198DCE2CF803809F03BCF8091E80004
:1038D000877F8093E80080919F018093F10027CF3C
:1038E00081112FCF9091A601923008F02ACF8091BC
:1038F000E800877F8093E80090939F010BDD809123
:103900009F01811529F084E08093A30110DA19CF7B
:103910008091E30087FDF7CF81E0F6CF0895CF9344
:103920008091A301811591F08091E900C091EC0094
:103930008F70C0FBCC27C7F9C82B1092E90080918B
:10394000E80083FDB2DECF70C093E900CF91089507
:10395000EE0FFF1F0590F491E02D0994692796273B
:10396000692778278727782708952F923F924F92CB
:103970005F926F927F928F929F92AF92BF92CF92FF
:10398000DF92EF92FF920F931F93CF93DF93CDB708
:10399000DEB7CA1BDB0B0FB6F894DEBF0FBECDBF80
:1039A00009942A88398848885F846E847D848C8451
:1039B0009B84AA84B984C884DF80EE80FD800C815A
:1039C0001B81AA81B981CE0FD11D0FB6F894DEBF3D
:1039D0000FBECDBFED010895FB01DC0104C08D9148
:1039E0000190801921F441505040C8F7881B990B71
:1039F0000895FB01DC0102C001900D92415050403E
:103A0000D8F70895F999FECF92BD81BDF89A99270C
:103A100080B50895A8E1B0E042E050E02FC0DC019D
:103A2000A40FB51F4150504040F0CB01840F951FAB
:103A30002E9105D041505040D8F70895262FF9997E
:103A4000FECF92BD81BDF89A019700B4021639F0FD
:103A50001FBA20BD0FB6F894FA9AF99A0FBE0895CE
:103A60000396272FECDFEADF252FE9DF242FE7CFAE
:103A70000196272FE4DFE2CFDC01CB01FC01F999AD
:103A8000FECF06C0F2BDE1BDF89A319600B40D92AA
:103A900041505040B8F70895F894FFCF94100111A9
:103AA0009C1066106A10A0106E10A410B0107A104E
:103AB000FA107E10B4108210B810DD108610BC1001
:103AC000E4108C10C210CA107210A8107610AC103E
:103AD0009010C610D410ED10F81060109810081156
:103AE00095129B1286128F12A112A712AD126313A8
:103AF0006D138E139E13A913B313B513B513B5131A
:103B000075137513B913BC13C413D013DC13DE1370
:103B1000E013EC13751B9B1BA11B9B1BA11BEE1B36
:083B2000101CA11B631C701CAA
:103B28006F01030201000001001E1537160B160C69
:063B3800160A162F16000C
:00000001FF
